{
  "contractName": "fundraiserFactory",
  "abi": [
    {
      "anonymous": false,
      "inputs": [
        {
          "indexed": true,
          "internalType": "contract Fundraiser",
          "name": "funraiser",
          "type": "address"
        }
      ],
      "name": "FundraiserCreated",
      "type": "event"
    },
    {
      "inputs": [],
      "name": "fundraiserCount",
      "outputs": [
        {
          "internalType": "uint256",
          "name": "",
          "type": "uint256"
        }
      ],
      "stateMutability": "view",
      "type": "function",
      "constant": true
    },
    {
      "inputs": [
        {
          "internalType": "string",
          "name": "_name",
          "type": "string"
        },
        {
          "internalType": "string",
          "name": "_url",
          "type": "string"
        },
        {
          "internalType": "string",
          "name": "_imageUrl",
          "type": "string"
        },
        {
          "internalType": "string",
          "name": "_description",
          "type": "string"
        },
        {
          "internalType": "address payable",
          "name": "_beneficiary",
          "type": "address"
        }
      ],
      "name": "createFundraiser",
      "outputs": [],
      "stateMutability": "nonpayable",
      "type": "function"
    },
    {
      "inputs": [
        {
          "internalType": "uint256",
          "name": "limit",
          "type": "uint256"
        },
        {
          "internalType": "uint256",
          "name": "offset",
          "type": "uint256"
        }
      ],
      "name": "fundraisers",
      "outputs": [
        {
          "internalType": "contract Fundraiser[]",
          "name": "coll",
          "type": "address[]"
        }
      ],
      "stateMutability": "view",
      "type": "function",
      "constant": true
    }
  ],
  "bytecode": "0x6080604052601460005534801561001557600080fd5b50612591806100256000396000f3fe60806040523480156200001157600080fd5b5060043610620000465760003560e01c806311d752ad146200004b57806337cd0940146200006b578063704914f8146200008d575b600080fd5b6200006960048036038101906200006391906200055c565b620000c3565b005b62000075620001b8565b6040516200008491906200067b565b60405180910390f35b620000ab6004803603810190620000a59190620006c9565b620001c5565b604051620000ba919062000838565b60405180910390f35b6000858585858533604051620000d99062000373565b620000ea969594939291906200091b565b604051809103906000f08015801562000107573d6000803e3d6000fd5b5090506001819080600181540180825580915050600190039060005260206000200160009091909190916101000a81548173ffffffffffffffffffffffffffffffffffffffff021916908373ffffffffffffffffffffffffffffffffffffffff1602179055508073ffffffffffffffffffffffffffffffffffffffff167f2557643b2d3fb1068494cb23ac8d1b3b2a857564fe606f86020e33e2351e42dc60405160405180910390a2505050505050565b6000600180549050905090565b6060620001d1620001b8565b82111562000216576040517f08c379a00000000000000000000000000000000000000000000000000000000081526004016200020d90620009f4565b60405180910390fd5b60008262000223620001b8565b6200022f919062000a45565b905083811062000240578362000242565b805b90506000548110620002575760005462000259565b805b90508067ffffffffffffffff811115620002785762000277620003b0565b5b604051908082528060200260200182016040528015620002a75781602001602082028036833780820191505090505b50915060005b818110156200036b5760018185620002c6919062000a80565b81548110620002da57620002d962000abb565b5b9060005260206000200160009054906101000a900473ffffffffffffffffffffffffffffffffffffffff168382815181106200031b576200031a62000abb565b5b602002602001019073ffffffffffffffffffffffffffffffffffffffff16908173ffffffffffffffffffffffffffffffffffffffff16815250508080620003629062000aea565b915050620002ad565b505092915050565b611a248062000b3883390190565b6000604051905090565b600080fd5b600080fd5b600080fd5b600080fd5b6000601f19601f8301169050919050565b7f4e487b7100000000000000000000000000000000000000000000000000000000600052604160045260246000fd5b620003ea826200039f565b810181811067ffffffffffffffff821117156200040c576200040b620003b0565b5b80604052505050565b60006200042162000381565b90506200042f8282620003df565b919050565b600067ffffffffffffffff821115620004525762000451620003b0565b5b6200045d826200039f565b9050602081019050919050565b82818337600083830152505050565b6000620004906200048a8462000434565b62000415565b905082815260208101848484011115620004af57620004ae6200039a565b5b620004bc8482856200046a565b509392505050565b600082601f830112620004dc57620004db62000395565b5b8135620004ee84826020860162000479565b91505092915050565b600073ffffffffffffffffffffffffffffffffffffffff82169050919050565b60006200052482620004f7565b9050919050565b620005368162000517565b81146200054257600080fd5b50565b60008135905062000556816200052b565b92915050565b600080600080600060a086880312156200057b576200057a6200038b565b5b600086013567ffffffffffffffff8111156200059c576200059b62000390565b5b620005aa88828901620004c4565b955050602086013567ffffffffffffffff811115620005ce57620005cd62000390565b5b620005dc88828901620004c4565b945050604086013567ffffffffffffffff8111156200060057620005ff62000390565b5b6200060e88828901620004c4565b935050606086013567ffffffffffffffff81111562000632576200063162000390565b5b6200064088828901620004c4565b9250506080620006538882890162000545565b9150509295509295909350565b6000819050919050565b620006758162000660565b82525050565b60006020820190506200069260008301846200066a565b92915050565b620006a38162000660565b8114620006af57600080fd5b50565b600081359050620006c38162000698565b92915050565b60008060408385031215620006e357620006e26200038b565b5b6000620006f385828601620006b2565b92505060206200070685828601620006b2565b9150509250929050565b600081519050919050565b600082825260208201905092915050565b6000819050602082019050919050565b6000819050919050565b600062000767620007616200075b84620004f7565b6200073c565b620004f7565b9050919050565b60006200077b8262000746565b9050919050565b60006200078f826200076e565b9050919050565b620007a18162000782565b82525050565b6000620007b5838362000796565b60208301905092915050565b6000602082019050919050565b6000620007db8262000710565b620007e781856200071b565b9350620007f4836200072c565b8060005b838110156200082b5781516200080f8882620007a7565b97506200081c83620007c1565b925050600181019050620007f8565b5085935050505092915050565b60006020820190508181036000830152620008548184620007ce565b905092915050565b600081519050919050565b600082825260208201905092915050565b60005b83811015620008985780820151818401526020810190506200087b565b60008484015250505050565b6000620008b1826200085c565b620008bd818562000867565b9350620008cf81856020860162000878565b620008da816200039f565b840191505092915050565b620008f08162000517565b82525050565b60006200090382620004f7565b9050919050565b6200091581620008f6565b82525050565b600060c0820190508181036000830152620009378189620008a4565b905081810360208301526200094d8188620008a4565b90508181036040830152620009638187620008a4565b90508181036060830152620009798186620008a4565b90506200098a6080830185620008e5565b6200099960a08301846200090a565b979650505050505050565b7f6f6666736574204f7574204f6620426f756e64204572726f7200000000000000600082015250565b6000620009dc60198362000867565b9150620009e982620009a4565b602082019050919050565b6000602082019050818103600083015262000a0f81620009cd565b9050919050565b7f4e487b7100000000000000000000000000000000000000000000000000000000600052601160045260246000fd5b600062000a528262000660565b915062000a5f8362000660565b925082820390508181111562000a7a5762000a7962000a16565b5b92915050565b600062000a8d8262000660565b915062000a9a8362000660565b925082820190508082111562000ab55762000ab462000a16565b5b92915050565b7f4e487b7100000000000000000000000000000000000000000000000000000000600052603260045260246000fd5b600062000af78262000660565b91507fffffffffffffffffffffffffffffffffffffffffffffffffffffffffffffffff820362000b2c5762000b2b62000a16565b5b60018201905091905056fe60806040523480156200001157600080fd5b5060405162001a2438038062001a24833981810160405281019062000037919062000406565b620000576200004b620000fd60201b60201c565b6200010560201b60201c565b856001908162000068919062000769565b5084600290816200007a919062000769565b5083600390816200008c919062000769565b5082600490816200009e919062000769565b5081600560006101000a81548173ffffffffffffffffffffffffffffffffffffffff021916908373ffffffffffffffffffffffffffffffffffffffff160217905550620000f1816200010560201b60201c565b50505050505062000850565b600033905090565b60008060009054906101000a900473ffffffffffffffffffffffffffffffffffffffff169050816000806101000a81548173ffffffffffffffffffffffffffffffffffffffff021916908373ffffffffffffffffffffffffffffffffffffffff1602179055508173ffffffffffffffffffffffffffffffffffffffff168173ffffffffffffffffffffffffffffffffffffffff167f8be0079c531659141344cd1fd0a4f28419497f9722a3daafe3b4186f6b6457e060405160405180910390a35050565b6000604051905090565b600080fd5b600080fd5b600080fd5b600080fd5b6000601f19601f8301169050919050565b7f4e487b7100000000000000000000000000000000000000000000000000000000600052604160045260246000fd5b6200023282620001e7565b810181811067ffffffffffffffff82111715620002545762000253620001f8565b5b80604052505050565b600062000269620001c9565b905062000277828262000227565b919050565b600067ffffffffffffffff8211156200029a5762000299620001f8565b5b620002a582620001e7565b9050602081019050919050565b60005b83811015620002d2578082015181840152602081019050620002b5565b60008484015250505050565b6000620002f5620002ef846200027c565b6200025d565b905082815260208101848484011115620003145762000313620001e2565b5b62000321848285620002b2565b509392505050565b600082601f830112620003415762000340620001dd565b5b815162000353848260208601620002de565b91505092915050565b600073ffffffffffffffffffffffffffffffffffffffff82169050919050565b600062000389826200035c565b9050919050565b6200039b816200037c565b8114620003a757600080fd5b50565b600081519050620003bb8162000390565b92915050565b6000620003ce826200035c565b9050919050565b620003e081620003c1565b8114620003ec57600080fd5b50565b6000815190506200040081620003d5565b92915050565b60008060008060008060c08789031215620004265762000425620001d3565b5b600087015167ffffffffffffffff811115620004475762000446620001d8565b5b6200045589828a0162000329565b965050602087015167ffffffffffffffff811115620004795762000478620001d8565b5b6200048789828a0162000329565b955050604087015167ffffffffffffffff811115620004ab57620004aa620001d8565b5b620004b989828a0162000329565b945050606087015167ffffffffffffffff811115620004dd57620004dc620001d8565b5b620004eb89828a0162000329565b9350506080620004fe89828a01620003aa565b92505060a06200051189828a01620003ef565b9150509295509295509295565b600081519050919050565b7f4e487b7100000000000000000000000000000000000000000000000000000000600052602260045260246000fd5b600060028204905060018216806200057157607f821691505b60208210810362000587576200058662000529565b5b50919050565b60008190508160005260206000209050919050565b60006020601f8301049050919050565b600082821b905092915050565b600060088302620005f17fffffffffffffffffffffffffffffffffffffffffffffffffffffffffffffffff82620005b2565b620005fd8683620005b2565b95508019841693508086168417925050509392505050565b6000819050919050565b6000819050919050565b60006200064a620006446200063e8462000615565b6200061f565b62000615565b9050919050565b6000819050919050565b620006668362000629565b6200067e620006758262000651565b848454620005bf565b825550505050565b600090565b6200069562000686565b620006a28184846200065b565b505050565b5b81811015620006ca57620006be6000826200068b565b600181019050620006a8565b5050565b601f8211156200071957620006e3816200058d565b620006ee84620005a2565b81016020851015620006fe578190505b620007166200070d85620005a2565b830182620006a7565b50505b505050565b600082821c905092915050565b60006200073e600019846008026200071e565b1980831691505092915050565b60006200075983836200072b565b9150826002028217905092915050565b62000774826200051e565b67ffffffffffffffff81111562000790576200078f620001f8565b5b6200079c825462000558565b620007a9828285620006ce565b600060209050601f831160018114620007e15760008415620007cc578287015190505b620007d885826200074b565b86555062000848565b601f198416620007f1866200058d565b60005b828110156200081b57848901518255600182019150602085019450602081019050620007f4565b868310156200083b578489015162000837601f8916826200072b565b8355505b6001600288020188555050505b505050505050565b6111c480620008606000396000f3fe6080604052600436106100ec5760003560e01c80637284e4161161008a578063b988899f11610059578063b988899f146102dc578063de2ed89314610305578063ed88c68e14610330578063f2fde38b1461033a57610125565b80637284e4161461022f5780638da5cb5b1461025a578063aba8315014610285578063af10e219146102b057610125565b80633ccfd60b116100c65780633ccfd60b146101ab57806343b4cc53146101c25780635600f04f146101ed578063715018a61461021857610125565b806306fdde031461012a5780630f7cc36b1461015557806338af3eed1461018057610125565b36610125576101063460065461036390919063ffffffff16565b6006819055506007600081548092919061011f90610c36565b91905055005b600080fd5b34801561013657600080fd5b5061013f610379565b60405161014c9190610d0e565b60405180910390f35b34801561016157600080fd5b5061016a610407565b6040516101779190610d3f565b60405180910390f35b34801561018c57600080fd5b5061019561040d565b6040516101a29190610d9b565b60405180910390f35b3480156101b757600080fd5b506101c0610433565b005b3480156101ce57600080fd5b506101d761051c565b6040516101e49190610d3f565b60405180910390f35b3480156101f957600080fd5b50610202610566565b60405161020f9190610d0e565b60405180910390f35b34801561022457600080fd5b5061022d6105f4565b005b34801561023b57600080fd5b50610244610608565b6040516102519190610d0e565b60405180910390f35b34801561026657600080fd5b5061026f610696565b60405161027c9190610dd7565b60405180910390f35b34801561029157600080fd5b5061029a6106bf565b6040516102a79190610d0e565b60405180910390f35b3480156102bc57600080fd5b506102c561074d565b6040516102d3929190610eb0565b60405180910390f35b3480156102e857600080fd5b5061030360048036038101906102fe9190610f18565b6108c2565b005b34801561031157600080fd5b5061031a61090e565b6040516103279190610d3f565b60405180910390f35b610338610914565b005b34801561034657600080fd5b50610361600480360381019061035c9190610f71565b610a30565b005b600081836103719190610f9e565b905092915050565b6001805461038690611001565b80601f01602080910402602001604051908101604052809291908181526020018280546103b290611001565b80156103ff5780601f106103d4576101008083540402835291602001916103ff565b820191906000526020600020905b8154815290600101906020018083116103e257829003601f168201915b505050505081565b60075481565b600560009054906101000a900473ffffffffffffffffffffffffffffffffffffffff1681565b61043b610ab3565b6000479050600560009054906101000a900473ffffffffffffffffffffffffffffffffffffffff1673ffffffffffffffffffffffffffffffffffffffff166108fc829081150290604051600060405180830381858888f193505050501580156104a8573d6000803e3d6000fd5b50600560009054906101000a900473ffffffffffffffffffffffffffffffffffffffff1673ffffffffffffffffffffffffffffffffffffffff167f884edad9ce6fa2440d8a54cc123490eb96d2768479d49ff9c7366125a9424364826040516105119190610d3f565b60405180910390a250565b6000600860003373ffffffffffffffffffffffffffffffffffffffff1673ffffffffffffffffffffffffffffffffffffffff16815260200190815260200160002080549050905090565b6002805461057390611001565b80601f016020809104026020016040519081016040528092919081815260200182805461059f90611001565b80156105ec5780601f106105c1576101008083540402835291602001916105ec565b820191906000526020600020905b8154815290600101906020018083116105cf57829003601f168201915b505050505081565b6105fc610ab3565b6106066000610b31565b565b6004805461061590611001565b80601f016020809104026020016040519081016040528092919081815260200182805461064190611001565b801561068e5780601f106106635761010080835404028352916020019161068e565b820191906000526020600020905b81548152906001019060200180831161067157829003601f168201915b505050505081565b60008060009054906101000a900473ffffffffffffffffffffffffffffffffffffffff16905090565b600380546106cc90611001565b80601f01602080910402602001604051908101604052809291908181526020018280546106f890611001565b80156107455780601f1061071a57610100808354040283529160200191610745565b820191906000526020600020905b81548152906001019060200180831161072857829003601f168201915b505050505081565b606080600061075a61051c565b90508067ffffffffffffffff81111561077657610775611032565b5b6040519080825280602002602001820160405280156107a45781602001602082028036833780820191505090505b5092508067ffffffffffffffff8111156107c1576107c0611032565b5b6040519080825280602002602001820160405280156107ef5781602001602082028036833780820191505090505b50915060005b818110156108bc576000600860003373ffffffffffffffffffffffffffffffffffffffff1673ffffffffffffffffffffffffffffffffffffffff16815260200190815260200160002082815481106108505761084f611061565b5b90600052602060002090600202019050806000015485838151811061087857610877611061565b5b602002602001018181525050806001015484838151811061089c5761089b611061565b5b6020026020010181815250505080806108b490610c36565b9150506107f5565b50509091565b6108ca610ab3565b80600560006101000a81548173ffffffffffffffffffffffffffffffffffffffff021916908373ffffffffffffffffffffffffffffffffffffffff16021790555050565b60065481565b60006040518060400160405280348152602001428152509050600860003373ffffffffffffffffffffffffffffffffffffffff1673ffffffffffffffffffffffffffffffffffffffff168152602001908152602001600020819080600181540180825580915050600190039060005260206000209060020201600090919091909150600082015181600001556020820151816001015550503373ffffffffffffffffffffffffffffffffffffffff167feb1d122264cac6b8de640365ba15ffbfb014baafb1dad99f53f8a56a9ea2a4ad346040516109f29190610d3f565b60405180910390a2610a0f3460065461036390919063ffffffff16565b60068190555060076000815480929190610a2890610c36565b919050555050565b610a38610ab3565b600073ffffffffffffffffffffffffffffffffffffffff168173ffffffffffffffffffffffffffffffffffffffff1603610aa7576040517f08c379a0000000000000000000000000000000000000000000000000000000008152600401610a9e90611102565b60405180910390fd5b610ab081610b31565b50565b610abb610bf5565b73ffffffffffffffffffffffffffffffffffffffff16610ad9610696565b73ffffffffffffffffffffffffffffffffffffffff1614610b2f576040517f08c379a0000000000000000000000000000000000000000000000000000000008152600401610b269061116e565b60405180910390fd5b565b60008060009054906101000a900473ffffffffffffffffffffffffffffffffffffffff169050816000806101000a81548173ffffffffffffffffffffffffffffffffffffffff021916908373ffffffffffffffffffffffffffffffffffffffff1602179055508173ffffffffffffffffffffffffffffffffffffffff168173ffffffffffffffffffffffffffffffffffffffff167f8be0079c531659141344cd1fd0a4f28419497f9722a3daafe3b4186f6b6457e060405160405180910390a35050565b600033905090565b7f4e487b7100000000000000000000000000000000000000000000000000000000600052601160045260246000fd5b6000819050919050565b6000610c4182610c2c565b91507fffffffffffffffffffffffffffffffffffffffffffffffffffffffffffffffff8203610c7357610c72610bfd565b5b600182019050919050565b600081519050919050565b600082825260208201905092915050565b60005b83811015610cb8578082015181840152602081019050610c9d565b60008484015250505050565b6000601f19601f8301169050919050565b6000610ce082610c7e565b610cea8185610c89565b9350610cfa818560208601610c9a565b610d0381610cc4565b840191505092915050565b60006020820190508181036000830152610d288184610cd5565b905092915050565b610d3981610c2c565b82525050565b6000602082019050610d546000830184610d30565b92915050565b600073ffffffffffffffffffffffffffffffffffffffff82169050919050565b6000610d8582610d5a565b9050919050565b610d9581610d7a565b82525050565b6000602082019050610db06000830184610d8c565b92915050565b6000610dc182610d5a565b9050919050565b610dd181610db6565b82525050565b6000602082019050610dec6000830184610dc8565b92915050565b600081519050919050565b600082825260208201905092915050565b6000819050602082019050919050565b610e2781610c2c565b82525050565b6000610e398383610e1e565b60208301905092915050565b6000602082019050919050565b6000610e5d82610df2565b610e678185610dfd565b9350610e7283610e0e565b8060005b83811015610ea3578151610e8a8882610e2d565b9750610e9583610e45565b925050600181019050610e76565b5085935050505092915050565b60006040820190508181036000830152610eca8185610e52565b90508181036020830152610ede8184610e52565b90509392505050565b600080fd5b610ef581610d7a565b8114610f0057600080fd5b50565b600081359050610f1281610eec565b92915050565b600060208284031215610f2e57610f2d610ee7565b5b6000610f3c84828501610f03565b91505092915050565b610f4e81610db6565b8114610f5957600080fd5b50565b600081359050610f6b81610f45565b92915050565b600060208284031215610f8757610f86610ee7565b5b6000610f9584828501610f5c565b91505092915050565b6000610fa982610c2c565b9150610fb483610c2c565b9250828201905080821115610fcc57610fcb610bfd565b5b92915050565b7f4e487b7100000000000000000000000000000000000000000000000000000000600052602260045260246000fd5b6000600282049050600182168061101957607f821691505b60208210810361102c5761102b610fd2565b5b50919050565b7f4e487b7100000000000000000000000000000000000000000000000000000000600052604160045260246000fd5b7f4e487b7100000000000000000000000000000000000000000000000000000000600052603260045260246000fd5b7f4f776e61626c653a206e6577206f776e657220697320746865207a65726f206160008201527f6464726573730000000000000000000000000000000000000000000000000000602082015250565b60006110ec602683610c89565b91506110f782611090565b604082019050919050565b6000602082019050818103600083015261111b816110df565b9050919050565b7f4f776e61626c653a2063616c6c6572206973206e6f7420746865206f776e6572600082015250565b6000611158602083610c89565b915061116382611122565b602082019050919050565b600060208201905081810360008301526111878161114b565b905091905056fea264697066735822122062107bdb9d25e81a6789f6141d21a0a629576bee78f8562285821448c0e4126d64736f6c63430008100033a264697066735822122083ba732ad9f3d2a979d224b248e0d18e5ba531fb9fa997d5e96efa36b98fc7a064736f6c63430008100033",
  "immutableReferences": {},
  "source": "//SPDX-License-Identifier:MIT\r\npragma solidity ^0.8.0;\r\nimport \"./Fundraiser.sol\";\r\n\r\ncontract fundraiserFactory {\r\n    uint256 maxLimit=20;\r\n    Fundraiser[] private _fundraisers;\r\n    event FundraiserCreated(Fundraiser indexed funraiser);\r\n    function fundraiserCount() public view returns (uint256) {\r\n        return _fundraisers.length;\r\n    }\r\n\r\n    function createFundraiser(\r\n        string memory _name,\r\n        string memory _url,\r\n        string memory _imageUrl,\r\n        string memory _description,\r\n        address payable _beneficiary\r\n    ) public {\r\n        Fundraiser funraiser = new Fundraiser(\r\n            _name,\r\n            _url,\r\n            _imageUrl,\r\n            _description,\r\n            _beneficiary,\r\n            msg.sender\r\n        );\r\n        _fundraisers.push(funraiser);\r\n        emit FundraiserCreated(funraiser);\r\n    }\r\n    function fundraisers(uint256 limit,uint256 offset) public view returns(Fundraiser[] memory coll){\r\n        require(offset <= fundraiserCount(), \"offset Out Of Bound Error\");\r\n        uint256 size=fundraiserCount()-offset;\r\n        size=size<limit ? size : limit;\r\n        size=size<maxLimit?size:maxLimit;\r\n        coll= new Fundraiser[](size);\r\n        for (uint256 i = 0; i < size; i++) {    \r\n            coll[i]=_fundraisers[offset+i];\r\n        }\r\n        return coll;\r\n    }\r\n}\r\n",
  "sourcePath": "E:\\create react\\contracts\\fundraiserFactory.sol",
  "compiler": {
    "name": "solc",
    "version": "0.8.16+commit.07a7930e.Emscripten.clang"
  },
  "schemaVersion": "3.4.14",
  "updatedAt": "2023-07-04T04:27:42.894Z",
  "networkType": "ethereum",
  "devdoc": {
    "kind": "dev",
    "methods": {},
    "version": 1
  },
  "userdoc": {
    "kind": "user",
    "methods": {},
    "version": 1
  }
}